{"contracts/SAGVerifier.sol":{"SAGVerifier":{"abi":[{"inputs":[],"stateMutability":"nonpayable","type":"constructor"},{"inputs":[{"internalType":"uint256","name":"message","type":"uint256"},{"internalType":"uint256[]","name":"ring","type":"uint256[]"},{"internalType":"uint256[]","name":"responses","type":"uint256[]"},{"internalType":"uint256","name":"c","type":"uint256"}],"name":"verifyRingSignature","outputs":[{"internalType":"bool","name":"","type":"bool"}],"stateMutability":"pure","type":"function"}],"evm":{"bytecode":{"linkReferences":{},"object":"608060405234801561001057600080fd5b50610bff806100206000396000f3fe608060405234801561001057600080fd5b506004361061002b5760003560e01c806332503eb114610030575b600080fd5b61004a600480360381019061004591906106e7565b610060565b60405161005791906107a1565b60405180910390f35b600080845111801561007f575060006002855161007d91906107eb565b145b6100be576040517f08c379a00000000000000000000000000000000000000000000000000000000081526004016100b59061089f565b60405180910390fd5b600284516100cc91906108ee565b83511461010e576040517f08c379a000000000000000000000000000000000000000000000000000000000815260040161010590610991565b60405180910390fd5b600061016e8685600081518110610128576101276109b1565b5b60200260200101518588600081518110610145576101446109b1565b5b602002602001015189600181518110610161576101606109b1565b5b6020026020010151610220565b90506000600290506000600190505b8551811015610210576101ec86828151811061019c5761019b6109b1565b5b6020026020010151848985815181106101b8576101b76109b1565b5b60200260200101518a6001876101ce91906109e0565b815181106101df576101de6109b1565b5b6020026020010151610290565b92506002826101fb91906109e0565b9150808061020890610a14565b91505061017d565b5081841492505050949350505050565b600061022c83836102fd565b600061023a86858588610408565b90506000878273ffffffffffffffffffffffffffffffffffffffff16604051602001610267929190610a6b565b6040516020818303038152906040529050808051906020012060001c9250505095945050505050565b600061029c83836102fd565b60006102aa86858588610408565b905060008173ffffffffffffffffffffffffffffffffffffffff166040516020016102d59190610a94565b6040516020818303038152906040529050808051906020012060001c92505050949350505050565b7ffffffffffffffffffffffffffffffffffffffffffffffffffffffffefffffc2f8061032c5761032b6107bc565b5b60077ffffffffffffffffffffffffffffffffffffffffffffffffffffffffefffffc2f8061035d5761035c6107bc565b5b7ffffffffffffffffffffffffffffffffffffffffffffffffffffffffefffffc2f8061038c5761038b6107bc565b5b8586098509087ffffffffffffffffffffffffffffffffffffffffffffffffffffffffefffffc2f806103c1576103c06107bc565b5b82830914610404576040517f08c379a00000000000000000000000000000000000000000000000000000000081526004016103fb90610afb565b60405180910390fd5b5050565b60007ffffffffffffffffffffffffffffffffebaaedce6af48a03bbfd25e8cd036414180610439576104386107bc565b5b847ffffffffffffffffffffffffffffffffebaaedce6af48a03bbfd25e8cd0364141877ffffffffffffffffffffffffffffffffebaaedce6af48a03bbfd25e8cd03641416104879190610b1b565b61049191906107eb565b09945060018560001b60006002866104a991906107eb565b036104b557601b6104b8565b601c5b8660001b7ffffffffffffffffffffffffffffffffebaaedce6af48a03bbfd25e8cd0364141806104eb576104ea6107bc565b5b88870960001b6040516000815260200160405260405161050e9493929190610b84565b6020604051602081039080840390855afa158015610530573d6000803e3d6000fd5b505050602060405103519050949350505050565b6000604051905090565b600080fd5b600080fd5b6000819050919050565b61056b81610558565b811461057657600080fd5b50565b60008135905061058881610562565b92915050565b600080fd5b6000601f19601f8301169050919050565b7f4e487b7100000000000000000000000000000000000000000000000000000000600052604160045260246000fd5b6105dc82610593565b810181811067ffffffffffffffff821117156105fb576105fa6105a4565b5b80604052505050565b600061060e610544565b905061061a82826105d3565b919050565b600067ffffffffffffffff82111561063a576106396105a4565b5b602082029050602081019050919050565b600080fd5b600061066361065e8461061f565b610604565b905080838252602082019050602084028301858111156106865761068561064b565b5b835b818110156106af578061069b8882610579565b845260208401935050602081019050610688565b5050509392505050565b600082601f8301126106ce576106cd61058e565b5b81356106de848260208601610650565b91505092915050565b600080600080608085870312156107015761070061054e565b5b600061070f87828801610579565b945050602085013567ffffffffffffffff8111156107305761072f610553565b5b61073c878288016106b9565b935050604085013567ffffffffffffffff81111561075d5761075c610553565b5b610769878288016106b9565b925050606061077a87828801610579565b91505092959194509250565b60008115159050919050565b61079b81610786565b82525050565b60006020820190506107b66000830184610792565b92915050565b7f4e487b7100000000000000000000000000000000000000000000000000000000600052601260045260246000fd5b60006107f682610558565b915061080183610558565b925082610811576108106107bc565b5b828206905092915050565b600082825260208201905092915050565b7f52696e67206c656e677468206d757374206265206576656e20616e642067726560008201527f61746572207468616e2031000000000000000000000000000000000000000000602082015250565b6000610889602b8361081c565b91506108948261082d565b604082019050919050565b600060208201905081810360008301526108b88161087c565b9050919050565b7f4e487b7100000000000000000000000000000000000000000000000000000000600052601160045260246000fd5b60006108f982610558565b915061090483610558565b925082610914576109136107bc565b5b828204905092915050565b7f526573706f6e736573206c656e677468206d75737420626520657175616c207460008201527f6f2072696e67206c656e677468202f2032000000000000000000000000000000602082015250565b600061097b60318361081c565b91506109868261091f565b604082019050919050565b600060208201905081810360008301526109aa8161096e565b9050919050565b7f4e487b7100000000000000000000000000000000000000000000000000000000600052603260045260246000fd5b60006109eb82610558565b91506109f683610558565b9250828201905080821115610a0e57610a0d6108bf565b5b92915050565b6000610a1f82610558565b91507fffffffffffffffffffffffffffffffffffffffffffffffffffffffffffffffff8203610a5157610a506108bf565b5b600182019050919050565b610a6581610558565b82525050565b6000604082019050610a806000830185610a5c565b610a8d6020830184610a5c565b9392505050565b6000602082019050610aa96000830184610a5c565b92915050565b7f506f696e74206973206e6f74206f6e2063757276650000000000000000000000600082015250565b6000610ae560158361081c565b9150610af082610aaf565b602082019050919050565b60006020820190508181036000830152610b1481610ad8565b9050919050565b6000610b2682610558565b9150610b3183610558565b9250828203905081811115610b4957610b486108bf565b5b92915050565b6000819050919050565b610b6281610b4f565b82525050565b600060ff82169050919050565b610b7e81610b68565b82525050565b6000608082019050610b996000830187610b59565b610ba66020830186610b75565b610bb36040830185610b59565b610bc06060830184610b59565b9594505050505056fea2646970667358221220445125d752c3c3536828c85765b77081830634c4b04695b5782282d170e34ef264736f6c63430008140033","opcodes":"PUSH1 0x80 PUSH1 0x40 MSTORE CALLVALUE DUP1 ISZERO PUSH2 0x10 JUMPI PUSH1 0x0 DUP1 REVERT JUMPDEST POP PUSH2 0xBFF DUP1 PUSH2 0x20 PUSH1 0x0 CODECOPY PUSH1 0x0 RETURN INVALID PUSH1 0x80 PUSH1 0x40 MSTORE CALLVALUE DUP1 ISZERO PUSH2 0x10 JUMPI PUSH1 0x0 DUP1 REVERT JUMPDEST POP PUSH1 0x4 CALLDATASIZE LT PUSH2 0x2B JUMPI PUSH1 0x0 CALLDATALOAD PUSH1 0xE0 SHR DUP1 PUSH4 0x32503EB1 EQ PUSH2 0x30 JUMPI JUMPDEST PUSH1 0x0 DUP1 REVERT JUMPDEST PUSH2 0x4A PUSH1 0x4 DUP1 CALLDATASIZE SUB DUP2 ADD SWAP1 PUSH2 0x45 SWAP2 SWAP1 PUSH2 0x6E7 JUMP JUMPDEST PUSH2 0x60 JUMP JUMPDEST PUSH1 0x40 MLOAD PUSH2 0x57 SWAP2 SWAP1 PUSH2 0x7A1 JUMP JUMPDEST PUSH1 0x40 MLOAD DUP1 SWAP2 SUB SWAP1 RETURN JUMPDEST PUSH1 0x0 DUP1 DUP5 MLOAD GT DUP1 ISZERO PUSH2 0x7F JUMPI POP PUSH1 0x0 PUSH1 0x2 DUP6 MLOAD PUSH2 0x7D SWAP2 SWAP1 PUSH2 0x7EB JUMP JUMPDEST EQ JUMPDEST PUSH2 0xBE JUMPI PUSH1 0x40 MLOAD PUSH32 0x8C379A000000000000000000000000000000000000000000000000000000000 DUP2 MSTORE PUSH1 0x4 ADD PUSH2 0xB5 SWAP1 PUSH2 0x89F JUMP JUMPDEST PUSH1 0x40 MLOAD DUP1 SWAP2 SUB SWAP1 REVERT JUMPDEST PUSH1 0x2 DUP5 MLOAD PUSH2 0xCC SWAP2 SWAP1 PUSH2 0x8EE JUMP JUMPDEST DUP4 MLOAD EQ PUSH2 0x10E JUMPI PUSH1 0x40 MLOAD PUSH32 0x8C379A000000000000000000000000000000000000000000000000000000000 DUP2 MSTORE PUSH1 0x4 ADD PUSH2 0x105 SWAP1 PUSH2 0x991 JUMP JUMPDEST PUSH1 0x40 MLOAD DUP1 SWAP2 SUB SWAP1 REVERT JUMPDEST PUSH1 0x0 PUSH2 0x16E DUP7 DUP6 PUSH1 0x0 DUP2 MLOAD DUP2 LT PUSH2 0x128 JUMPI PUSH2 0x127 PUSH2 0x9B1 JUMP JUMPDEST JUMPDEST PUSH1 0x20 MUL PUSH1 0x20 ADD ADD MLOAD DUP6 DUP9 PUSH1 0x0 DUP2 MLOAD DUP2 LT PUSH2 0x145 JUMPI PUSH2 0x144 PUSH2 0x9B1 JUMP JUMPDEST JUMPDEST PUSH1 0x20 MUL PUSH1 0x20 ADD ADD MLOAD DUP10 PUSH1 0x1 DUP2 MLOAD DUP2 LT PUSH2 0x161 JUMPI PUSH2 0x160 PUSH2 0x9B1 JUMP JUMPDEST JUMPDEST PUSH1 0x20 MUL PUSH1 0x20 ADD ADD MLOAD PUSH2 0x220 JUMP JUMPDEST SWAP1 POP PUSH1 0x0 PUSH1 0x2 SWAP1 POP PUSH1 0x0 PUSH1 0x1 SWAP1 POP JUMPDEST DUP6 MLOAD DUP2 LT ISZERO PUSH2 0x210 JUMPI PUSH2 0x1EC DUP7 DUP3 DUP2 MLOAD DUP2 LT PUSH2 0x19C JUMPI PUSH2 0x19B PUSH2 0x9B1 JUMP JUMPDEST JUMPDEST PUSH1 0x20 MUL PUSH1 0x20 ADD ADD MLOAD DUP5 DUP10 DUP6 DUP2 MLOAD DUP2 LT PUSH2 0x1B8 JUMPI PUSH2 0x1B7 PUSH2 0x9B1 JUMP JUMPDEST JUMPDEST PUSH1 0x20 MUL PUSH1 0x20 ADD ADD MLOAD DUP11 PUSH1 0x1 DUP8 PUSH2 0x1CE SWAP2 SWAP1 PUSH2 0x9E0 JUMP JUMPDEST DUP2 MLOAD DUP2 LT PUSH2 0x1DF JUMPI PUSH2 0x1DE PUSH2 0x9B1 JUMP JUMPDEST JUMPDEST PUSH1 0x20 MUL PUSH1 0x20 ADD ADD MLOAD PUSH2 0x290 JUMP JUMPDEST SWAP3 POP PUSH1 0x2 DUP3 PUSH2 0x1FB SWAP2 SWAP1 PUSH2 0x9E0 JUMP JUMPDEST SWAP2 POP DUP1 DUP1 PUSH2 0x208 SWAP1 PUSH2 0xA14 JUMP JUMPDEST SWAP2 POP POP PUSH2 0x17D JUMP JUMPDEST POP DUP2 DUP5 EQ SWAP3 POP POP POP SWAP5 SWAP4 POP POP POP POP JUMP JUMPDEST PUSH1 0x0 PUSH2 0x22C DUP4 DUP4 PUSH2 0x2FD JUMP JUMPDEST PUSH1 0x0 PUSH2 0x23A DUP7 DUP6 DUP6 DUP9 PUSH2 0x408 JUMP JUMPDEST SWAP1 POP PUSH1 0x0 DUP8 DUP3 PUSH20 0xFFFFFFFFFFFFFFFFFFFFFFFFFFFFFFFFFFFFFFFF AND PUSH1 0x40 MLOAD PUSH1 0x20 ADD PUSH2 0x267 SWAP3 SWAP2 SWAP1 PUSH2 0xA6B JUMP JUMPDEST PUSH1 0x40 MLOAD PUSH1 0x20 DUP2 DUP4 SUB SUB DUP2 MSTORE SWAP1 PUSH1 0x40 MSTORE SWAP1 POP DUP1 DUP1 MLOAD SWAP1 PUSH1 0x20 ADD KECCAK256 PUSH1 0x0 SHR SWAP3 POP POP POP SWAP6 SWAP5 POP POP POP POP POP JUMP JUMPDEST PUSH1 0x0 PUSH2 0x29C DUP4 DUP4 PUSH2 0x2FD JUMP JUMPDEST PUSH1 0x0 PUSH2 0x2AA DUP7 DUP6 DUP6 DUP9 PUSH2 0x408 JUMP JUMPDEST SWAP1 POP PUSH1 0x0 DUP2 PUSH20 0xFFFFFFFFFFFFFFFFFFFFFFFFFFFFFFFFFFFFFFFF AND PUSH1 0x40 MLOAD PUSH1 0x20 ADD PUSH2 0x2D5 SWAP2 SWAP1 PUSH2 0xA94 JUMP JUMPDEST PUSH1 0x40 MLOAD PUSH1 0x20 DUP2 DUP4 SUB SUB DUP2 MSTORE SWAP1 PUSH1 0x40 MSTORE SWAP1 POP DUP1 DUP1 MLOAD SWAP1 PUSH1 0x20 ADD KECCAK256 PUSH1 0x0 SHR SWAP3 POP POP POP SWAP5 SWAP4 POP POP POP POP JUMP JUMPDEST PUSH32 0xFFFFFFFFFFFFFFFFFFFFFFFFFFFFFFFFFFFFFFFFFFFFFFFFFFFFFFFEFFFFFC2F DUP1 PUSH2 0x32C JUMPI PUSH2 0x32B PUSH2 0x7BC JUMP JUMPDEST JUMPDEST PUSH1 0x7 PUSH32 0xFFFFFFFFFFFFFFFFFFFFFFFFFFFFFFFFFFFFFFFFFFFFFFFFFFFFFFFEFFFFFC2F DUP1 PUSH2 0x35D JUMPI PUSH2 0x35C PUSH2 0x7BC JUMP JUMPDEST JUMPDEST PUSH32 0xFFFFFFFFFFFFFFFFFFFFFFFFFFFFFFFFFFFFFFFFFFFFFFFFFFFFFFFEFFFFFC2F DUP1 PUSH2 0x38C JUMPI PUSH2 0x38B PUSH2 0x7BC JUMP JUMPDEST JUMPDEST DUP6 DUP7 MULMOD DUP6 MULMOD ADDMOD PUSH32 0xFFFFFFFFFFFFFFFFFFFFFFFFFFFFFFFFFFFFFFFFFFFFFFFFFFFFFFFEFFFFFC2F DUP1 PUSH2 0x3C1 JUMPI PUSH2 0x3C0 PUSH2 0x7BC JUMP JUMPDEST JUMPDEST DUP3 DUP4 MULMOD EQ PUSH2 0x404 JUMPI PUSH1 0x40 MLOAD PUSH32 0x8C379A000000000000000000000000000000000000000000000000000000000 DUP2 MSTORE PUSH1 0x4 ADD PUSH2 0x3FB SWAP1 PUSH2 0xAFB JUMP JUMPDEST PUSH1 0x40 MLOAD DUP1 SWAP2 SUB SWAP1 REVERT JUMPDEST POP POP JUMP JUMPDEST PUSH1 0x0 PUSH32 0xFFFFFFFFFFFFFFFFFFFFFFFFFFFFFFFEBAAEDCE6AF48A03BBFD25E8CD0364141 DUP1 PUSH2 0x439 JUMPI PUSH2 0x438 PUSH2 0x7BC JUMP JUMPDEST JUMPDEST DUP5 PUSH32 0xFFFFFFFFFFFFFFFFFFFFFFFFFFFFFFFEBAAEDCE6AF48A03BBFD25E8CD0364141 DUP8 PUSH32 0xFFFFFFFFFFFFFFFFFFFFFFFFFFFFFFFEBAAEDCE6AF48A03BBFD25E8CD0364141 PUSH2 0x487 SWAP2 SWAP1 PUSH2 0xB1B JUMP JUMPDEST PUSH2 0x491 SWAP2 SWAP1 PUSH2 0x7EB JUMP JUMPDEST MULMOD SWAP5 POP PUSH1 0x1 DUP6 PUSH1 0x0 SHL PUSH1 0x0 PUSH1 0x2 DUP7 PUSH2 0x4A9 SWAP2 SWAP1 PUSH2 0x7EB JUMP JUMPDEST SUB PUSH2 0x4B5 JUMPI PUSH1 0x1B PUSH2 0x4B8 JUMP JUMPDEST PUSH1 0x1C JUMPDEST DUP7 PUSH1 0x0 SHL PUSH32 0xFFFFFFFFFFFFFFFFFFFFFFFFFFFFFFFEBAAEDCE6AF48A03BBFD25E8CD0364141 DUP1 PUSH2 0x4EB JUMPI PUSH2 0x4EA PUSH2 0x7BC JUMP JUMPDEST JUMPDEST DUP9 DUP8 MULMOD PUSH1 0x0 SHL PUSH1 0x40 MLOAD PUSH1 0x0 DUP2 MSTORE PUSH1 0x20 ADD PUSH1 0x40 MSTORE PUSH1 0x40 MLOAD PUSH2 0x50E SWAP5 SWAP4 SWAP3 SWAP2 SWAP1 PUSH2 0xB84 JUMP JUMPDEST PUSH1 0x20 PUSH1 0x40 MLOAD PUSH1 0x20 DUP2 SUB SWAP1 DUP1 DUP5 SUB SWAP1 DUP6 GAS STATICCALL ISZERO DUP1 ISZERO PUSH2 0x530 JUMPI RETURNDATASIZE PUSH1 0x0 DUP1 RETURNDATACOPY RETURNDATASIZE PUSH1 0x0 REVERT JUMPDEST POP POP POP PUSH1 0x20 PUSH1 0x40 MLOAD SUB MLOAD SWAP1 POP SWAP5 SWAP4 POP POP POP POP JUMP JUMPDEST PUSH1 0x0 PUSH1 0x40 MLOAD SWAP1 POP SWAP1 JUMP JUMPDEST PUSH1 0x0 DUP1 REVERT JUMPDEST PUSH1 0x0 DUP1 REVERT JUMPDEST PUSH1 0x0 DUP2 SWAP1 POP SWAP2 SWAP1 POP JUMP JUMPDEST PUSH2 0x56B DUP2 PUSH2 0x558 JUMP JUMPDEST DUP2 EQ PUSH2 0x576 JUMPI PUSH1 0x0 DUP1 REVERT JUMPDEST POP JUMP JUMPDEST PUSH1 0x0 DUP2 CALLDATALOAD SWAP1 POP PUSH2 0x588 DUP2 PUSH2 0x562 JUMP JUMPDEST SWAP3 SWAP2 POP POP JUMP JUMPDEST PUSH1 0x0 DUP1 REVERT JUMPDEST PUSH1 0x0 PUSH1 0x1F NOT PUSH1 0x1F DUP4 ADD AND SWAP1 POP SWAP2 SWAP1 POP JUMP JUMPDEST PUSH32 0x4E487B7100000000000000000000000000000000000000000000000000000000 PUSH1 0x0 MSTORE PUSH1 0x41 PUSH1 0x4 MSTORE PUSH1 0x24 PUSH1 0x0 REVERT JUMPDEST PUSH2 0x5DC DUP3 PUSH2 0x593 JUMP JUMPDEST DUP2 ADD DUP2 DUP2 LT PUSH8 0xFFFFFFFFFFFFFFFF DUP3 GT OR ISZERO PUSH2 0x5FB JUMPI PUSH2 0x5FA PUSH2 0x5A4 JUMP JUMPDEST JUMPDEST DUP1 PUSH1 0x40 MSTORE POP POP POP JUMP JUMPDEST PUSH1 0x0 PUSH2 0x60E PUSH2 0x544 JUMP JUMPDEST SWAP1 POP PUSH2 0x61A DUP3 DUP3 PUSH2 0x5D3 JUMP JUMPDEST SWAP2 SWAP1 POP JUMP JUMPDEST PUSH1 0x0 PUSH8 0xFFFFFFFFFFFFFFFF DUP3 GT ISZERO PUSH2 0x63A JUMPI PUSH2 0x639 PUSH2 0x5A4 JUMP JUMPDEST JUMPDEST PUSH1 0x20 DUP3 MUL SWAP1 POP PUSH1 0x20 DUP2 ADD SWAP1 POP SWAP2 SWAP1 POP JUMP JUMPDEST PUSH1 0x0 DUP1 REVERT JUMPDEST PUSH1 0x0 PUSH2 0x663 PUSH2 0x65E DUP5 PUSH2 0x61F JUMP JUMPDEST PUSH2 0x604 JUMP JUMPDEST SWAP1 POP DUP1 DUP4 DUP3 MSTORE PUSH1 0x20 DUP3 ADD SWAP1 POP PUSH1 0x20 DUP5 MUL DUP4 ADD DUP6 DUP2 GT ISZERO PUSH2 0x686 JUMPI PUSH2 0x685 PUSH2 0x64B JUMP JUMPDEST JUMPDEST DUP4 JUMPDEST DUP2 DUP2 LT ISZERO PUSH2 0x6AF JUMPI DUP1 PUSH2 0x69B DUP9 DUP3 PUSH2 0x579 JUMP JUMPDEST DUP5 MSTORE PUSH1 0x20 DUP5 ADD SWAP4 POP POP PUSH1 0x20 DUP2 ADD SWAP1 POP PUSH2 0x688 JUMP JUMPDEST POP POP POP SWAP4 SWAP3 POP POP POP JUMP JUMPDEST PUSH1 0x0 DUP3 PUSH1 0x1F DUP4 ADD SLT PUSH2 0x6CE JUMPI PUSH2 0x6CD PUSH2 0x58E JUMP JUMPDEST JUMPDEST DUP2 CALLDATALOAD PUSH2 0x6DE DUP5 DUP3 PUSH1 0x20 DUP7 ADD PUSH2 0x650 JUMP JUMPDEST SWAP2 POP POP SWAP3 SWAP2 POP POP JUMP JUMPDEST PUSH1 0x0 DUP1 PUSH1 0x0 DUP1 PUSH1 0x80 DUP6 DUP8 SUB SLT ISZERO PUSH2 0x701 JUMPI PUSH2 0x700 PUSH2 0x54E JUMP JUMPDEST JUMPDEST PUSH1 0x0 PUSH2 0x70F DUP8 DUP3 DUP9 ADD PUSH2 0x579 JUMP JUMPDEST SWAP5 POP POP PUSH1 0x20 DUP6 ADD CALLDATALOAD PUSH8 0xFFFFFFFFFFFFFFFF DUP2 GT ISZERO PUSH2 0x730 JUMPI PUSH2 0x72F PUSH2 0x553 JUMP JUMPDEST JUMPDEST PUSH2 0x73C DUP8 DUP3 DUP9 ADD PUSH2 0x6B9 JUMP JUMPDEST SWAP4 POP POP PUSH1 0x40 DUP6 ADD CALLDATALOAD PUSH8 0xFFFFFFFFFFFFFFFF DUP2 GT ISZERO PUSH2 0x75D JUMPI PUSH2 0x75C PUSH2 0x553 JUMP JUMPDEST JUMPDEST PUSH2 0x769 DUP8 DUP3 DUP9 ADD PUSH2 0x6B9 JUMP JUMPDEST SWAP3 POP POP PUSH1 0x60 PUSH2 0x77A DUP8 DUP3 DUP9 ADD PUSH2 0x579 JUMP JUMPDEST SWAP2 POP POP SWAP3 SWAP6 SWAP2 SWAP5 POP SWAP3 POP JUMP JUMPDEST PUSH1 0x0 DUP2 ISZERO ISZERO SWAP1 POP SWAP2 SWAP1 POP JUMP JUMPDEST PUSH2 0x79B DUP2 PUSH2 0x786 JUMP JUMPDEST DUP3 MSTORE POP POP JUMP JUMPDEST PUSH1 0x0 PUSH1 0x20 DUP3 ADD SWAP1 POP PUSH2 0x7B6 PUSH1 0x0 DUP4 ADD DUP5 PUSH2 0x792 JUMP JUMPDEST SWAP3 SWAP2 POP POP JUMP JUMPDEST PUSH32 0x4E487B7100000000000000000000000000000000000000000000000000000000 PUSH1 0x0 MSTORE PUSH1 0x12 PUSH1 0x4 MSTORE PUSH1 0x24 PUSH1 0x0 REVERT JUMPDEST PUSH1 0x0 PUSH2 0x7F6 DUP3 PUSH2 0x558 JUMP JUMPDEST SWAP2 POP PUSH2 0x801 DUP4 PUSH2 0x558 JUMP JUMPDEST SWAP3 POP DUP3 PUSH2 0x811 JUMPI PUSH2 0x810 PUSH2 0x7BC JUMP JUMPDEST JUMPDEST DUP3 DUP3 MOD SWAP1 POP SWAP3 SWAP2 POP POP JUMP JUMPDEST PUSH1 0x0 DUP3 DUP3 MSTORE PUSH1 0x20 DUP3 ADD SWAP1 POP SWAP3 SWAP2 POP POP JUMP JUMPDEST PUSH32 0x52696E67206C656E677468206D757374206265206576656E20616E6420677265 PUSH1 0x0 DUP3 ADD MSTORE PUSH32 0x61746572207468616E2031000000000000000000000000000000000000000000 PUSH1 0x20 DUP3 ADD MSTORE POP JUMP JUMPDEST PUSH1 0x0 PUSH2 0x889 PUSH1 0x2B DUP4 PUSH2 0x81C JUMP JUMPDEST SWAP2 POP PUSH2 0x894 DUP3 PUSH2 0x82D JUMP JUMPDEST PUSH1 0x40 DUP3 ADD SWAP1 POP SWAP2 SWAP1 POP JUMP JUMPDEST PUSH1 0x0 PUSH1 0x20 DUP3 ADD SWAP1 POP DUP2 DUP2 SUB PUSH1 0x0 DUP4 ADD MSTORE PUSH2 0x8B8 DUP2 PUSH2 0x87C JUMP JUMPDEST SWAP1 POP SWAP2 SWAP1 POP JUMP JUMPDEST PUSH32 0x4E487B7100000000000000000000000000000000000000000000000000000000 PUSH1 0x0 MSTORE PUSH1 0x11 PUSH1 0x4 MSTORE PUSH1 0x24 PUSH1 0x0 REVERT JUMPDEST PUSH1 0x0 PUSH2 0x8F9 DUP3 PUSH2 0x558 JUMP JUMPDEST SWAP2 POP PUSH2 0x904 DUP4 PUSH2 0x558 JUMP JUMPDEST SWAP3 POP DUP3 PUSH2 0x914 JUMPI PUSH2 0x913 PUSH2 0x7BC JUMP JUMPDEST JUMPDEST DUP3 DUP3 DIV SWAP1 POP SWAP3 SWAP2 POP POP JUMP JUMPDEST PUSH32 0x526573706F6E736573206C656E677468206D75737420626520657175616C2074 PUSH1 0x0 DUP3 ADD MSTORE PUSH32 0x6F2072696E67206C656E677468202F2032000000000000000000000000000000 PUSH1 0x20 DUP3 ADD MSTORE POP JUMP JUMPDEST PUSH1 0x0 PUSH2 0x97B PUSH1 0x31 DUP4 PUSH2 0x81C JUMP JUMPDEST SWAP2 POP PUSH2 0x986 DUP3 PUSH2 0x91F JUMP JUMPDEST PUSH1 0x40 DUP3 ADD SWAP1 POP SWAP2 SWAP1 POP JUMP JUMPDEST PUSH1 0x0 PUSH1 0x20 DUP3 ADD SWAP1 POP DUP2 DUP2 SUB PUSH1 0x0 DUP4 ADD MSTORE PUSH2 0x9AA DUP2 PUSH2 0x96E JUMP JUMPDEST SWAP1 POP SWAP2 SWAP1 POP JUMP JUMPDEST PUSH32 0x4E487B7100000000000000000000000000000000000000000000000000000000 PUSH1 0x0 MSTORE PUSH1 0x32 PUSH1 0x4 MSTORE PUSH1 0x24 PUSH1 0x0 REVERT JUMPDEST PUSH1 0x0 PUSH2 0x9EB DUP3 PUSH2 0x558 JUMP JUMPDEST SWAP2 POP PUSH2 0x9F6 DUP4 PUSH2 0x558 JUMP JUMPDEST SWAP3 POP DUP3 DUP3 ADD SWAP1 POP DUP1 DUP3 GT ISZERO PUSH2 0xA0E JUMPI PUSH2 0xA0D PUSH2 0x8BF JUMP JUMPDEST JUMPDEST SWAP3 SWAP2 POP POP JUMP JUMPDEST PUSH1 0x0 PUSH2 0xA1F DUP3 PUSH2 0x558 JUMP JUMPDEST SWAP2 POP PUSH32 0xFFFFFFFFFFFFFFFFFFFFFFFFFFFFFFFFFFFFFFFFFFFFFFFFFFFFFFFFFFFFFFFF DUP3 SUB PUSH2 0xA51 JUMPI PUSH2 0xA50 PUSH2 0x8BF JUMP JUMPDEST JUMPDEST PUSH1 0x1 DUP3 ADD SWAP1 POP SWAP2 SWAP1 POP JUMP JUMPDEST PUSH2 0xA65 DUP2 PUSH2 0x558 JUMP JUMPDEST DUP3 MSTORE POP POP JUMP JUMPDEST PUSH1 0x0 PUSH1 0x40 DUP3 ADD SWAP1 POP PUSH2 0xA80 PUSH1 0x0 DUP4 ADD DUP6 PUSH2 0xA5C JUMP JUMPDEST PUSH2 0xA8D PUSH1 0x20 DUP4 ADD DUP5 PUSH2 0xA5C JUMP JUMPDEST SWAP4 SWAP3 POP POP POP JUMP JUMPDEST PUSH1 0x0 PUSH1 0x20 DUP3 ADD SWAP1 POP PUSH2 0xAA9 PUSH1 0x0 DUP4 ADD DUP5 PUSH2 0xA5C JUMP JUMPDEST SWAP3 SWAP2 POP POP JUMP JUMPDEST PUSH32 0x506F696E74206973206E6F74206F6E2063757276650000000000000000000000 PUSH1 0x0 DUP3 ADD MSTORE POP JUMP JUMPDEST PUSH1 0x0 PUSH2 0xAE5 PUSH1 0x15 DUP4 PUSH2 0x81C JUMP JUMPDEST SWAP2 POP PUSH2 0xAF0 DUP3 PUSH2 0xAAF JUMP JUMPDEST PUSH1 0x20 DUP3 ADD SWAP1 POP SWAP2 SWAP1 POP JUMP JUMPDEST PUSH1 0x0 PUSH1 0x20 DUP3 ADD SWAP1 POP DUP2 DUP2 SUB PUSH1 0x0 DUP4 ADD MSTORE PUSH2 0xB14 DUP2 PUSH2 0xAD8 JUMP JUMPDEST SWAP1 POP SWAP2 SWAP1 POP JUMP JUMPDEST PUSH1 0x0 PUSH2 0xB26 DUP3 PUSH2 0x558 JUMP JUMPDEST SWAP2 POP PUSH2 0xB31 DUP4 PUSH2 0x558 JUMP JUMPDEST SWAP3 POP DUP3 DUP3 SUB SWAP1 POP DUP2 DUP2 GT ISZERO PUSH2 0xB49 JUMPI PUSH2 0xB48 PUSH2 0x8BF JUMP JUMPDEST JUMPDEST SWAP3 SWAP2 POP POP JUMP JUMPDEST PUSH1 0x0 DUP2 SWAP1 POP SWAP2 SWAP1 POP JUMP JUMPDEST PUSH2 0xB62 DUP2 PUSH2 0xB4F JUMP JUMPDEST DUP3 MSTORE POP POP JUMP JUMPDEST PUSH1 0x0 PUSH1 0xFF DUP3 AND SWAP1 POP SWAP2 SWAP1 POP JUMP JUMPDEST PUSH2 0xB7E DUP2 PUSH2 0xB68 JUMP JUMPDEST DUP3 MSTORE POP POP JUMP JUMPDEST PUSH1 0x0 PUSH1 0x80 DUP3 ADD SWAP1 POP PUSH2 0xB99 PUSH1 0x0 DUP4 ADD DUP8 PUSH2 0xB59 JUMP JUMPDEST PUSH2 0xBA6 PUSH1 0x20 DUP4 ADD DUP7 PUSH2 0xB75 JUMP JUMPDEST PUSH2 0xBB3 PUSH1 0x40 DUP4 ADD DUP6 PUSH2 0xB59 JUMP JUMPDEST PUSH2 0xBC0 PUSH1 0x60 DUP4 ADD DUP5 PUSH2 0xB59 JUMP JUMPDEST SWAP6 SWAP5 POP POP POP POP POP JUMP INVALID LOG2 PUSH5 0x6970667358 0x22 SLT KECCAK256 PREVRANDAO MLOAD 0x25 0xD7 MSTORE 0xC3 0xC3 MSTORE8 PUSH9 0x28C85765B770818306 CALLVALUE 0xC4 0xB0 CHAINID SWAP6 0xB5 PUSH25 0x2282D170E34EF264736F6C6343000814003300000000000000 "},"methodIdentifiers":{"verifyRingSignature(uint256,uint256[],uint256[],uint256)":"32503eb1"}}}}}