{
  "_format": "hh-sol-artifact-1",
  "contractName": "SAGVerifier",
  "sourceName": "contracts/SAGVerifier.sol",
  "abi": [
    {
      "inputs": [],
      "stateMutability": "nonpayable",
      "type": "constructor"
    },
    {
      "inputs": [
        {
          "internalType": "uint256",
          "name": "message",
          "type": "uint256"
        },
        {
          "internalType": "uint256[]",
          "name": "ring",
          "type": "uint256[]"
        },
        {
          "internalType": "uint256[]",
          "name": "responses",
          "type": "uint256[]"
        },
        {
          "internalType": "uint256",
          "name": "c",
          "type": "uint256"
        }
      ],
      "name": "verifyRingSignature",
      "outputs": [
        {
          "internalType": "bool",
          "name": "",
          "type": "bool"
        }
      ],
      "stateMutability": "pure",
      "type": "function"
    }
  ],
  "bytecode": "0x608060405234801561001057600080fd5b50610bff806100206000396000f3fe608060405234801561001057600080fd5b506004361061002b5760003560e01c806332503eb114610030575b600080fd5b61004a600480360381019061004591906106e7565b610060565b60405161005791906107a1565b60405180910390f35b600080845111801561007f575060006002855161007d91906107eb565b145b6100be576040517f08c379a00000000000000000000000000000000000000000000000000000000081526004016100b59061089f565b60405180910390fd5b600284516100cc91906108ee565b83511461010e576040517f08c379a000000000000000000000000000000000000000000000000000000000815260040161010590610991565b60405180910390fd5b600061016e8685600081518110610128576101276109b1565b5b60200260200101518588600081518110610145576101446109b1565b5b602002602001015189600181518110610161576101606109b1565b5b6020026020010151610220565b90506000600290506000600190505b8551811015610210576101ec86828151811061019c5761019b6109b1565b5b6020026020010151848985815181106101b8576101b76109b1565b5b60200260200101518a6001876101ce91906109e0565b815181106101df576101de6109b1565b5b6020026020010151610290565b92506002826101fb91906109e0565b9150808061020890610a14565b91505061017d565b5081841492505050949350505050565b600061022c83836102fd565b600061023a86858588610408565b90506000878273ffffffffffffffffffffffffffffffffffffffff16604051602001610267929190610a6b565b6040516020818303038152906040529050808051906020012060001c9250505095945050505050565b600061029c83836102fd565b60006102aa86858588610408565b905060008173ffffffffffffffffffffffffffffffffffffffff166040516020016102d59190610a94565b6040516020818303038152906040529050808051906020012060001c92505050949350505050565b7ffffffffffffffffffffffffffffffffffffffffffffffffffffffffefffffc2f8061032c5761032b6107bc565b5b60077ffffffffffffffffffffffffffffffffffffffffffffffffffffffffefffffc2f8061035d5761035c6107bc565b5b7ffffffffffffffffffffffffffffffffffffffffffffffffffffffffefffffc2f8061038c5761038b6107bc565b5b8586098509087ffffffffffffffffffffffffffffffffffffffffffffffffffffffffefffffc2f806103c1576103c06107bc565b5b82830914610404576040517f08c379a00000000000000000000000000000000000000000000000000000000081526004016103fb90610afb565b60405180910390fd5b5050565b60007ffffffffffffffffffffffffffffffffebaaedce6af48a03bbfd25e8cd036414180610439576104386107bc565b5b847ffffffffffffffffffffffffffffffffebaaedce6af48a03bbfd25e8cd0364141877ffffffffffffffffffffffffffffffffebaaedce6af48a03bbfd25e8cd03641416104879190610b1b565b61049191906107eb565b09945060018560001b60006002866104a991906107eb565b036104b557601b6104b8565b601c5b8660001b7ffffffffffffffffffffffffffffffffebaaedce6af48a03bbfd25e8cd0364141806104eb576104ea6107bc565b5b88870960001b6040516000815260200160405260405161050e9493929190610b84565b6020604051602081039080840390855afa158015610530573d6000803e3d6000fd5b505050602060405103519050949350505050565b6000604051905090565b600080fd5b600080fd5b6000819050919050565b61056b81610558565b811461057657600080fd5b50565b60008135905061058881610562565b92915050565b600080fd5b6000601f19601f8301169050919050565b7f4e487b7100000000000000000000000000000000000000000000000000000000600052604160045260246000fd5b6105dc82610593565b810181811067ffffffffffffffff821117156105fb576105fa6105a4565b5b80604052505050565b600061060e610544565b905061061a82826105d3565b919050565b600067ffffffffffffffff82111561063a576106396105a4565b5b602082029050602081019050919050565b600080fd5b600061066361065e8461061f565b610604565b905080838252602082019050602084028301858111156106865761068561064b565b5b835b818110156106af578061069b8882610579565b845260208401935050602081019050610688565b5050509392505050565b600082601f8301126106ce576106cd61058e565b5b81356106de848260208601610650565b91505092915050565b600080600080608085870312156107015761070061054e565b5b600061070f87828801610579565b945050602085013567ffffffffffffffff8111156107305761072f610553565b5b61073c878288016106b9565b935050604085013567ffffffffffffffff81111561075d5761075c610553565b5b610769878288016106b9565b925050606061077a87828801610579565b91505092959194509250565b60008115159050919050565b61079b81610786565b82525050565b60006020820190506107b66000830184610792565b92915050565b7f4e487b7100000000000000000000000000000000000000000000000000000000600052601260045260246000fd5b60006107f682610558565b915061080183610558565b925082610811576108106107bc565b5b828206905092915050565b600082825260208201905092915050565b7f52696e67206c656e677468206d757374206265206576656e20616e642067726560008201527f61746572207468616e2031000000000000000000000000000000000000000000602082015250565b6000610889602b8361081c565b91506108948261082d565b604082019050919050565b600060208201905081810360008301526108b88161087c565b9050919050565b7f4e487b7100000000000000000000000000000000000000000000000000000000600052601160045260246000fd5b60006108f982610558565b915061090483610558565b925082610914576109136107bc565b5b828204905092915050565b7f526573706f6e736573206c656e677468206d75737420626520657175616c207460008201527f6f2072696e67206c656e677468202f2032000000000000000000000000000000602082015250565b600061097b60318361081c565b91506109868261091f565b604082019050919050565b600060208201905081810360008301526109aa8161096e565b9050919050565b7f4e487b7100000000000000000000000000000000000000000000000000000000600052603260045260246000fd5b60006109eb82610558565b91506109f683610558565b9250828201905080821115610a0e57610a0d6108bf565b5b92915050565b6000610a1f82610558565b91507fffffffffffffffffffffffffffffffffffffffffffffffffffffffffffffffff8203610a5157610a506108bf565b5b600182019050919050565b610a6581610558565b82525050565b6000604082019050610a806000830185610a5c565b610a8d6020830184610a5c565b9392505050565b6000602082019050610aa96000830184610a5c565b92915050565b7f506f696e74206973206e6f74206f6e2063757276650000000000000000000000600082015250565b6000610ae560158361081c565b9150610af082610aaf565b602082019050919050565b60006020820190508181036000830152610b1481610ad8565b9050919050565b6000610b2682610558565b9150610b3183610558565b9250828203905081811115610b4957610b486108bf565b5b92915050565b6000819050919050565b610b6281610b4f565b82525050565b600060ff82169050919050565b610b7e81610b68565b82525050565b6000608082019050610b996000830187610b59565b610ba66020830186610b75565b610bb36040830185610b59565b610bc06060830184610b59565b9594505050505056fea2646970667358221220445125d752c3c3536828c85765b77081830634c4b04695b5782282d170e34ef264736f6c63430008140033",
  "linkReferences": {},
  "deployedLinkReferences": {}
}